:020000040800F2
:1000000098050024AD020008A1400008092A000854
:1000100099400008C9030008F94F000800000000DB
:100020000000000000000000000000000144000883
:10003000D103000800000000A9400008094400089E
:10004000C7020008C7020008C7020008C70200086C
:10005000C7020008C7020008C7020008C70200085C
:10006000C7020008C7020008C7020008C70200084C
:10007000C7020008C7020008C7020008C70200083C
:10008000C7020008C7020008C7020008C70200082C
:10009000C7020008C7020008C7020008C70200081C
:1000A000C7020008C7020008C7020008C70200080C
:1000B000C7020008C7020008C7020008C7020008FC
:1000C000C7020008C7020008C7020008C7020008EC
:1000D000C7020008C7020008C7020008C7020008DC
:1000E000C7020008C702000800000000C70200089D
:1000F000C7020008C7020008C7020008C7020008BC
:10010000C7020008C7020008C7020008C7020008AB
:10011000C7020008C7020008C7020008C70200089B
:10012000C7020008C7020008C7020008C70200088B
:10013000C7020008C7020008C7020008C70200087B
:1001400000000000000000000000000000000000AF
:10015000C7020008C7020008C7020008C70200085B
:10016000C7020008C7020008C7020008C70200084B
:10017000C7020008C7020008C7020008C70200083B
:10018000C7020008C7020008C7020008C70200082B
:10019000C7020008C7020008C7020008C70200081B
:1001A000C7020008C7020008C7020008C70200080B
:1001B000C7020008C7020008C7020008C7020008FB
:1001C000C7020008C7020008C7020008C7020008EB
:1001D000C7020008C7020008C7020008C7020008DB
:1001E000C7020008C7020008C7020008C7020008CB
:1001F000C7020008C7020008C7020008C7020008BB
:10020000C7020008C7020008C7020008C7020008AA
:10021000C7020008C7020008C7020008C70200089A
:10022000C7020008C7020008C7020008000000005B
:10023000C7020008C702000800000000C70200084B
:10024000C7020008C7020008C7020008C70200086A
:10025000C7020008C7020008C7020008C70200085A
:10026000C7020008C7020008C7020008C70200084A
:10027000C7020008C7020008C7020008000000000B
:10028000C7020008C7020008C702000800000000FB
:1002900000000000C7020008DFF80CD000F07AF878
:1002A0000048004701500008980500240648804790
:1002B00006480047FEE7FEE7FEE7FEE7FEE7FEE74B
:1002C000FEE7FEE7FEE7FEE7514500089902000859
:1002D0002DE9F05F0546002092469B46884606467B
:1002E000814640241BE0284641464746224600F00E
:1002F00041F853465A46C01A914110D31146184648
:10030000224600F028F82D1A67EB01084F462246D6
:100310000120002100F01FF817EB00094E41201EBC
:10032000A4F10104DFDC484631462A464346BDE8D5
:10033000F09FD2B201E000F8012B491EFBD27047BA
:100340000022F6E710B513460A4604461946FFF7A1
:10035000F0FF204610BD202A04DB203A00FA02F10B
:10036000002070479140C2F1200320FA03F31943A3
:1003700090407047202A04DB203A21FA02F0002145
:10038000704721FA02F3D040C2F1200291400843A5
:10039000194670471CB50948009009480190054668
:1003A000009C06E0E06840F0010394E807009847ED
:1003B0001034AC42F6D3FFF773FF00009C680008CE
:1003C000BC68000800000000FEE70000000000001C
:1003D0007047000000000000EFF3108072B600BF0D
:1003E000FEE7000000000000002849D0B0B5044638
:1003F00090F8350010B9204600F046F8022084F845
:100400003500D4F818E04FF20705BEF1000FCFF623
:10041000E0751CBF0020606294E80510E368102AB4
:10042000016801EA05010160D4E9045141EA0301D0
:10043000236A41EA0501656A41EA0C0141EA0301C8
:10044000A36A41EA0501E56A41EA0301236B41EA37
:100450000501056841EA030141EA050141EA0E018F
:1004600041EA0201016001D1E1698161C16841F0A5
:100470001E01C1600020E064012184F83510B0BD88
:1004800001207047000000002DE9F04385B040F2E4
:1004900000080068C4F60208404503D005B0BDE876
:1004A000F08300BF44F2E04040F20049C5F602008C
:1004B000C5F602096D46022750F8041C002641F0DB
:1004C000010140F8041C50F8041C0D2401F0010146
:1004D00000910099016841F010010160016801F08C
:1004E000100100910099016841F00101016001686B
:1004F00001F0010100910099016841F004010160DF
:10050000016801F0040100910099016841F00801BF
:100510000160016801F0080100910099016841F053
:10052000020101600068294600F002000090009876
:100530007020009009F540600197CDE902660494AF
:1005400000F046F850202946CDE9000708F1805018
:100550000494CDE9026600F03BF84FF47070294630
:10056000CDE9000709F580600494CDE9026600F04A
:100570002FF808202946CDE9000709F5006004940A
:10058000CDE9026600F024F880202946CDE9000775
:1005900048460494CDE9026600F01AF805B0BDE8BB
:1005A000F083000000000000B0B5044600F0F4F84D
:1005B00040F200010546C2F20041621C097818BFF2
:1005C0000C4400BF00F0E8F8401BA042FAD3B0BDD5
:1005D0002DE9F04F82B00D68002D00F0C78000F1CA
:1005E000264242F2004402F1FF728305C5F602047E
:1005F0000A27A04243EA922208BF0927092A40F2AB
:10060000040C38BF1746C5F6000C4FF0000E0097DB
:10061000002700260AE000BF01360D6835FA06F211
:1006200007F102070EF1040E00F0A080012202FA89
:1006300006FB15EA0B08EFD0D1F804A003220AF05C
:10064000030502FA07F36C1E6FEA0309012C0FD8A9
:100650008368CC6803EA0903BC4023438360CAF380
:100660000014436823EA0B03B4402343436003E0D0
:10067000032D01D1032520E0C3688C6803EA090338
:10068000BC40022D43EA0403C36016D16FF003029D
:100690000EF01C0502EA56030F22034402FA05FB82
:1006A000D3F820A00C692AEA0B0AAC4044EA0A04F9
:1006B0001C62D1F804A00AF00305036805FA07F4E8
:1006C00003EA09031AF4403F43EA04030360A3D09A
:1006D00044F2F44240F2084AC5F60202C5F6000AA6
:1006E000136843F00203136013680F2203F0020340
:1006F000019326F00303019C0EF00C0453F80A90BA
:1007000002FA04F5009A29EA050502FA04F44FF00A
:10071000B0492C4343F80A40D9F800304C6843EA0A
:100720000805E20258BF23EA0805C9F80050A502EF
:10073000DCF8002042EA080358BF22EA0803A503B8
:10074000CCF80030DCF8802042EA080358BF22EAE7
:100750000803E403CCF88030DCF87C2042EA08038C
:1007600058BF22EA0803CCF87C3055E702B0BDE858
:10077000F08F000000000000002A08BF090481611A
:10078000704700000000000041F20000C5F6004084
:100790000068000C7047000040F29410C2F2004064
:1007A000006870470000000040F2000040F2941121
:1007B000C2F20040C2F2004100780A6810440860AA
:1007C000704700000000000080B5032000F098F89A
:1007D00001F06EF944F2184145F2A203C5F6020198
:1007E000C0F600030A68C2F303229A5C096801F0AC
:1007F0000F0102F01F02595CD04040F20C02C2F21D
:10080000004201F01F0120FA01F1116040F20801DD
:10081000C2F2004108600F2000F00AF800281CBF57
:10082000012080BD00F02CF8002080BD00000000F9
:1008300070B540F20006C2F200463178E1B10446DC
:1008400040F20800C2F200404FF47A72B2FBF1F1BC
:100850000068B0FBF1F001F09BFF0F2C4FF0010599
:1008600008D838B94FF0FF3000222146002500F0AB
:1008700017F87460284670BD012070BD00000000AC
:1008800081B044F2F440C5F60200016841F0020173
:100890000160006800F002000090009801B070470D
:1008A00070B54EF60C5C4FF0FF36CEF2000C00F146
:1008B000604505F56445DCF80030C3F3022E8EF088
:1008C0000703042B28BF0423BEF1030406FA03F335
:1008D00021EA030100F00F0338BF0024043B002885
:1008E000634406FA04F048BF03F10C05A14022EA74
:1008F000000008430001287070BD000000000000E7
:100900004EF60C514FF6FF03CEF200010A681A4072
:1009100060F30A2242F0806040F0FD70086070478A
:10092000B0B544F60C05C5F60205296849072968E3
:1009300006D401F00701081A18BF0120B0BD00BF9E
:1009400021F0070108432860FFF726FF044600BF97
:1009500055F8080C800407D4FFF71EFF001BB0F504
:100960007A7FF5D90120B0BD0020B0BD00000000A5
:1009700080B501F015F844F2204145F2A202C5F617
:100980000201C0F600020968C1F30211515C01F0D6
:100990001F01C84080BD000080B544F2384EC5F646
:1009A000020E5EF8103C5EF8101C5EF80C2CC1F3D1
:1009B000053CDEF80410BCF1000F15D0C908D206C2
:1009C00001EAE2716FF35F3100EE101A03F00301E8
:1009D0000229B8EE400A0DD081B95EF8381C8906AC
:1009E00010D49FED361A1BE000218160C0E9001190
:1009F00080BD00BF9FED301A12E000BF9FED2D1AA1
:100A00000EE000BF5EF8381C49F20002C0F2D0329E
:100A1000C1F3C10122FA01F101EE101AB8EE411A38
:100A2000DEF800109FED263A6FF35F2102EE101AF8
:100A3000DEF80010C1F34621B8EE422A00EE032A88
:100A400000EE10CAB7EE003AB8EE400A81EE000A96
:100A500032EE031A02EE101AB8EE422A20EE010A14
:100A600032EE031A80EE011ABCEEC11A80ED001AB4
:100A7000DEF80010C1F3064101EE101AB8EE411A7B
:100A800031EE031A80EE011ABCEEC11A80ED011A94
:100A9000DEF80010C1F3066101EE101AB8EE411A3B
:100AA00031EE031A80EE010ABCEEC00A10EE101AF5
:100AB000816080BD0024744A20BCBE4B0024744C6D
:100AC000000000390000000080B544F2404EC5F639
:100AD000020E5EF8183C5EF8181C5EF8142CC1F388
:100AE000055CDEF80410BCF1000F15D0C908D20572
:100AF00001EAE2716FF35F3100EE101A03F00301B7
:100B00000229B8EE400A0DD081B95EF8401C890672
:100B100010D49FED361A1BE000218160C0E900115E
:100B200080BD00BF9FED301A12E000BF9FED2D1A6F
:100B30000EE000BF5EF8401C49F20002C0F2D03265
:100B4000C1F3C10122FA01F101EE101AB8EE411A07
:100B5000DEF800109FED263A6FF35F2102EE101AC7
:100B6000DEF80010C1F34621B8EE422A00EE032A57
:100B700000EE10CAB7EE003AB8EE400A81EE000A65
:100B800032EE031A02EE101AB8EE422A20EE010AE3
:100B900032EE031A80EE011ABCEEC11A80ED001A83
:100BA000DEF80010C1F3064101EE101AB8EE411A4A
:100BB00031EE031A80EE011ABCEEC11A80ED011A63
:100BC000DEF80010C1F3066101EE101AB8EE411A0A
:100BD00031EE031A80EE010ABCEEC00A10EE101AC4
:100BE000816080BD0024744A20BCBE4B0024744C3C
:100BF00000000039000000002DE9F0470446C078ED
:100C000044F22C480007C5F6020833D5A06E4FEA1F
:100C1000305103290CD8DFE801F003111D2600BF75
:100C2000D8F8001041F40031C8F800101BE000BFF4
:100C300001266078C0070BD020E000BF04F1080057
:100C4000022103F035FA064660B16078C00715D17D
:100C5000354646E004F12800022103F0BDFA0646BD
:100C60000028F2D1A06ED8F8241021F440110843D6
:100C7000C8F8240000266078C007E9D0A06D0428D9
:100C80000ED83546DFE800F00412181E1E0000BF23
:100C9000D8F80000354640F40030C8F8000011E0F4
:100CA00001250127607880071FD452E004F1080075
:100CB000002103F0FDF904E004F12800002103F015
:100CC0008BFA05462F461DB1607880070DD440E0B1
:100CD000D8F82400A16D20F0070000250843C8F8CB
:100CE000240037466078800733D5E06D4FEAB010B6
:100CF00004280DD8DFE800F00412181E1E0000BF03
:100D0000D8F8000040F40030C8F8000012E000BF3E
:100D100001250126607840071FD455E004F1080042
:100D2000002103F0C5F904E004F12800002103F0DC
:100D300053FA05462E461DB1607840070DD443E0B6
:100D4000D8F82400E16D20F4E07000250843C8F8CD
:100D500024003E466078400736D5D4F8A8004FEA14
:100D6000705004280CD8DFE800F00313191F1F008F
:100D7000D8F8000040F40030C8F8000014E000BFCC
:100D800001254FF001096078000721D456E000BF2B
:100D900004F10800002103F08BF904E004F12800BD
:100DA000002103F019FA0546A9461DB16078000735
:100DB0000ED443E0D8F82C00D4F8A81020F460003A
:100DC00000250843C8F82C00B1466078000735D5E7
:100DD000D4F8AC004FEA306004280DD8DFE800F00A
:100DE0000412181E1E0000BFD8F8000040F40030A6
:100DF000C8F8000012E000BF01250127E078800755
:100E000020D44EE004F10800002103F051F904E081
:100E100004F12800002103F0DFF905462F461DB13B
:100E2000E07880070ED43CE0D8F82C00D4F8AC1061
:100E300020F0E06000250843C8F82C004F46E07819
:100E400080072ED5E06C4FEA301003280ED8DFE87B
:100E500000F00903130900BFD8F8000040F4003087
:100E6000C8F800002E467DB912E000BF012501261A
:100E70006078C00619D44CE004F10800022103F0A8
:100E800017F905462E461DB16078C0060DD440E026
:100E9000D8F82000E16C20F0300000250843C8F8A5
:100EA00020003E466078C00633D5206E4FEA3030D1
:100EB00004280DD8DFE800F00412181E1E0000BF41
:100EC000D8F8000040F40030C8F8000012E000BF7D
:100ED00001250127607880061FD44EE004F1080048
:100EE000002103F0E5F804E004F12800002103F0FC
:100EF00073F905462F461DB1607880060DD43CE09D
:100F0000D8F82400216E20F4E04000250843C8F8FA
:100F100024003746607880062FD5606E4FEA304057
:100F2000052809D8DFE800F0040E1404040400BF0B
:100F30002E46ADB918E000BF0125012660784006B5
:100F40001FD44FE004F10800012103F0B1F804E0E0
:100F500004F12800012103F03FF905462E461DB19A
:100F6000607840060DD43DE0D8F82400616E20F48E
:100F7000E02000250843C8F824003E46607840067B
:100F800030D5D4F8B0004FEA3070052808D8DFE833
:100F900000F0030D130303032F46ADB918E000BFA3
:100FA000012501276078000620D442E004F1080002
:100FB000012103F07DF804E004F12800012103F091
:100FC0000BF905462F461DB1607800060ED430E0BF
:100FD000D8F82C00D4F8B01020F0E04000250843E9
:100FE000C8F82C0037466078000622D5206F58B12B
:100FF000B0F1005F0CD0B0F1805F2FD1D8F80000C5
:1010000040F40030C8F800002E469DB908E000BF4B
:1010100004F10800012103F04BF805462E464DB9B6
:10102000D8F82400216F20F0405000250843C8F86C
:1010300024003E46E078C00733D0A06C032813D8C4
:10104000DFE800F008021A08D8F8000040F4003089
:10105000C8F80000A946BDB91AE000BF0125012665
:10106000E078C007E9D11CE001254FF00109A07824
:1010700040061AD51CE000BF04F10800022103F06D
:1010800017F80546A9461DB1A07840060DD50FE01A
:10109000D8F82000A16C20F0030000250843C8F810
:1010A0002000B146A078400602D44F4618E000BFA9
:1010B000D8F8D40340F48070C8F8D403FFF76CFB71
:1010C000064600BFD8F8D403C00507D4FFF764FB79
:1010D000801B6428F6D90325032701E02F468DB134
:1010E0002078C00761D0E06F4FEAF00005283BD8B8
:1010F000DFE800F004404604040400BF002D2E4643
:1011000046D149E0D8F84410D4F8B400414011F475
:10111000407F11D0D8F84410D8F8442042F48032EF
:10112000C8F84420D8F8442021F4407122F48032D9
:10113000C8F84420C8F84410B0F5807F40F0DE8243
:10114000FFF72AFB064641F2883A0325032700BF32
:10115000D8F84400800700F1CF82FFF71DFB801B09
:101160005045F5D9BCE700BF01250126207880074E
:101170001FD44CE004F10800012102F099FF04E0C3
:1011800004F12800012103F027F805462E461DB181
:10119000207880070DD43AE0D8F82800E16F20F0DD
:1011A000380000250843C8F828003E46207880070C
:1011B0002DD5A06F052809D8DFE800F0040E14042F
:1011C000040400BF2F46ADB918E000BF0125012778
:1011D000207840071FD44DE004F10800012102F0FF
:1011E00067FF04E004F12800012102F0F5FF054645
:1011F0002F461DB1207840070DD43BE0D8F82800D9
:10120000A16F20F0070000250843C8F828003746E2
:10121000207840072ED5D4F89400052808D8DFE8B8
:1012200000F0030D130303032E46ADB918E000BF11
:10123000012501262078800620D451E004F1080021
:10124000012102F035FF04E004F12800012102F041
:10125000C3FF05462E461DB1207880060ED43FE020
:10126000D8F82C00D4F8941020F00700002508438B
:10127000C8F82C003E462078800631D5D4F890007E
:101280004FEA3070052809D8DFE800F0040E140496
:10129000040400BF2F46ADB918E000BF01250127A7
:1012A0002078400620D451E004F10800002102F02B
:1012B000FFFE04E004F12800022102F08DFF054644
:1012C0002F461DB1207840060ED43FE0D8F8280004
:1012D000D4F8901020F0E04000250843C8F828001A
:1012E00037462078400631D5D4F89C004FEAB0202C
:1012F000052809D8DFE800F0040E1404040400BF38
:101300002E46ADB918E000BF012501262078000661
:1013100020D454E004F10800002102F0C9FE04E0EA
:1013200004F12800022102F057FF05462E461DB1A8
:10133000207800060ED442E0D8F82C00D4F89C1097
:1013400020F4E05000250843C8F82C003E462078E1
:10135000000634D5D4F8A0004FEA703005280FD825
:10136000DFE800F004141A04040400BF2F46E5B1BE
:101370002068010727D4C1063ED4000355D475E088
:101380000125012720680107F5D51CE004F10800BC
:10139000002102F08DFE04E004F12800022102F099
:1013A0001BFF0546002D2F46E2D1D8F82C00D4F8BB
:1013B000A01020F4604000250843C8F82C003746F0
:1013C00020680107D7D5D4F88400B0F5805F09D133
:1013D00004F12800022102F0FFFE002818BF0127B7
:1013E000D4F88400D8F8281021F440510843C8F8F4
:1013F00028002068C106C0D5D4F89800B0F5807FD9
:1014000009D104F12800022102F0E6FE002818BFED
:101410000127D4F89800D8F82C1021F44071084323
:10142000C8F82C002068000320D5D4F8A400B0F53B
:10143000003F0FD0B0F5803F06D078BB04F1080024
:10144000002102F035FE04E004F12800022102F040
:10145000C3FE05462E4655B9D8F82C00D4F8A41082
:1014600020F4403000250843C8F82C003E46A07800
:1014700040072BD5D4F88800B0F5401F0BD0B0F54D
:10148000001F11D0B0F5801F2AD1D8F8000040F419
:101490000030C8F800002F46CDB90DE00125012627
:1014A000A0784007E6D411E004F12800012102F001
:1014B00093FE05462F4655B9D8F82800D4F8881071
:1014C00020F4401000250843C8F828003746A078CB
:1014D000C0070AD13E462168880016D533E000BF18
:1014E00001250127A078C007F4D0206DB0F5803F1A
:1014F00010D018BBD8F8000040F40030C8F8000045
:101500002E4685B1216888001DD460688A0326D4E0
:1015100069E000BF04F10800022102F0C9FD0546A0
:10152000002D2E46EED1D8F82000216D20F4803019
:1015300000250843C8F82000CCE700BF012501269C
:1015400021688800E1D504F12800022102F044FE60
:10155000002818BF0126D4E900108A0343D5D4F827
:1015600080206FF0010303EB3223022B0BD34FEAF1
:10157000322343B1012B40F0B980D8F8003043F456
:101580000033C8F800303DB3CA022FD4CA0037D4A4
:101590008A0240D44A0048D4CA0F55D109025DD40A
:1015A000C10766D181076FD4410779D4010700F1E3
:1015B0008380C10600F18C80800607D504F12800E5
:1015C000022102F009FE002818BF0125002D18BFD6
:1015D00001252846BDE8F087D8F8283023F4407369
:1015E0001A43C8F828203546CA02CFD5D8F8242097
:1015F000636F22F000421A43C8F82420CA00C7D5FE
:1016000058F81C2CD4F8B83022F480421A4348F819
:101610001C2C8A02BED5D8F82420E36E22F08072FA
:101620001A43C8F824204A00B6D558F81C2C22F4D6
:10163000004248F81C2CD4F8BC2058F81C3C1A4333
:1016400048F81C2CCA0FA9D0D8F82020636D22F0CE
:1016500040521A43C8F820200902A1D5D8F8281012
:10166000D4F88C2021F440011143C8F82810C10798
:1016700098D004F10800002102F01AFD002818BFDC
:101680000546606881078FD504F10800012102F04A
:101690000FFD002818BF0546606841077FF586AF3B
:1016A00004F10800022102F003FD002818BF0546DE
:1016B000606801077FF57DAF04F12800002102F08A
:1016C0008BFD002818BF05466068C1067FF574AF22
:1016D00004F12800012102F07FFD002818BF054613
:1016E000606880063FF56AAF70E700BF0125CA0257
:1016F0007FF54CAF7AE700BFD4F8B4004FF6CF7354
:1017000058F81C2CC0F2FF0300F4407122F47C5204
:1017100003EA10136FF31F30B1F5407F08BF1A437F
:10172000002548F81C2CD8F844100843C8F8440099
:10173000FFF7BBBC000000002DE9F04381B000289A
:1017400000F02A8142F200080446C5F200288946CA
:10175000D8F8000000F00F0088420ED2D8F8000040
:1017600020F00F0040EA0900C8F80000D8F8000097
:1017700000F00F00484540F00F81206844F2184700
:101780004107C5F602070AD521693A6802F07002DE
:10179000914204D93A6822F070021143396001077E
:1017A0000AD561697A6802F07002914204D97A68B8
:1017B00022F0700211437960C1060AD5A1697A68E6
:1017C00002F4E062914204D97A6822F4E0621143A3
:1017D000796081060AD5E169BA6802F07002914227
:1017E00004D9BA6822F070021143B96010F0020106
:1017F0000AD0E2683B6803F00F039A4204D93B68C1
:1018000023F00F031A433A60C20746D03968D4E97F
:10181000010221F47061012841EA0201396009D016
:1018200003280DD0022811D157F8181C890312D4AF
:10183000B2E000BF57F8181CC9050CD4ACE000BFDB
:1018400057F8181C890106D4A6E000BF57F8181CE9
:10185000490740F1A18057F8081C21F0070108430F
:1018600047F8080CFEF798FF064641F2883500BF9E
:1018700057F8080C616800F03800B0EBC10F09D0D0
:10188000FEF78AFF801BA842F2D9032001B0BDE811
:10189000F08300BF206800F0020151B1E1683A68AE
:1018A00002F00F02914204D23A6822F00F02114373
:1018B0003960D8F8001001F00F0149450DD9D8F86A
:1018C000001021F00F0141EA0901C8F80010D8F812
:1018D000001001F00F0149455ED141070AD5216989
:1018E0003A6802F07002914204D23A6822F0700223
:1018F0001143396001070AD561697A6802F0700204
:10190000914204D27A6822F0700211437960C106D4
:101910000AD5A1697A6802F4E062914204D27A6839
:1019200022F4E0621143796080060AD5E069B96863
:1019300001F07001884204D2B96821F070010843B7
:10194000B86000F0B5F8396845F2A202C0F60002AE
:10195000C1F30321515C3B6803F00F0301F01F0149
:10196000D25C20FA01F102F01F0040F20C02C2F238
:10197000004221FA00F0106040F2040040F2080238
:10198000C2F20040C2F200420068116001B0BDE83E
:10199000F043FEF74DBF00BF012001B0BDE8F0836A
:1019A00080B500F085F844F2184145F2A203C5F66F
:1019B0000201C0F600030A68C2F303229A5C0968B8
:1019C00001F00F0102F01F02595C20FA02F201F04F
:1019D0001F0040F20C01C2F2004122FA00F0086040
:1019E00040F20801C2F200410A6080BD0000000020
:1019F00080B500F05DF844F2184C45F2A203C5F63C
:101A0000020CC0F60003DCF80020C2F303229A5C4B
:101A1000DCF8001001F00F0102F01F02595CD04009
:101A200040F20C02C2F2004201F01F0120FA01F163
:101A3000116040F20802C2F200421060DCF80400BB
:101A4000C0F30210185C00F01F0021FA00F080BD06
:101A500080B500F02DF844F2184C45F2A203C5F60B
:101A6000020CC0F60003DCF80020C2F303229A5CEB
:101A7000DCF8001001F00F0102F01F02595CD040A9
:101A800040F20C02C2F2004201F01F0120FA01F103
:101A9000116040F20802C2F200421060DCF804005B
:101AA000C0F30220185C00F01F0021FA00F080BD96
:101AB00044F20041C5F602010869C0F3C2000328E0
:101AC00010D002282ED098BB0868800649F200008A
:101AD000C0F2D03058BF70470968C1F3C101C84097
:101AE000704700BF8A6A886AC0F3051CC86ABCF1E7
:101AF000000F4B6B22D000F0010002F003024042C5
:101B0000022A00EAD3006FF35F3000EE100AB8EE4D
:101B1000400A15D0C2B90868800619D49FED281A6A
:101B200023E000BF47F64000C0F27D10704700BFC1
:101B300040F60010C0F23D00704700BF0020704723
:101B40009FED1E1A11E000BF9FED1B1A0DE000BFB4
:101B5000086849F20002C0F2D032C0F3C10022FA94
:101B600000F001EE100AB8EE411A086B9FED153A2D
:101B70006FF35F2002EE100A086BC0F34620B8EE48
:101B8000422A013000EE032A00EE10CAB7EE003AF6
:101B9000B8EE400A81EE000A32EE031A20EE010A86
:101BA00001EE100AB8EE411A80EE010ABCEEC00A3E
:101BB00010EE100A704700BF0024744A20BCBE4BD0
:101BC0000024744C0000003970B3F0B581B00446B5
:101BD000007844F20046C007C5F6020626D12078F8
:101BE000800740F1C280306910F03801B06A43D0FC
:101BF000182908BF5FEA80703ED0E068316800288D
:101C000066D021F0190108433060FEF7C5FD054696
:101C1000306840074CD4FEF7BFFD401B0228F7D9BF
:101C2000032001B0F0BD00BF01207047306900F013
:101C30003801B06A102905D018290BD100F0030033
:101C4000022807D130688003C9D560680028C6D152
:101C50003CE100BF606800284CD0B0F5A02F61D0F7
:101C6000B0F5803F62D0306820F48030306030685A
:101C700020F480205DE000BF30684007E06802D5B6
:101C8000002800F02381316821F0190108433060F9
:101C9000FEF782FD054600BF3068400708D4FEF716
:101CA0007BFD401B02284FF00300F5D901B0F0BDC9
:101CB000FEF76AFD41F2030188424BD82069716842
:101CC000402821F47C314DD141F400304CE000BF7C
:101CD00021F001003060FEF75FFD054630684007E7
:101CE00043D5FEF759FD401B02284FF00300F5D9FC
:101CF000DCE700BF306820F480303060306820F4CA
:101D000080203060FEF748FD054600BF3068800344
:101D10007FF565AFFEF740FD401B64284FF00300E0
:101D2000F4D9C3E7306840F480203060306840F474
:101D300080303060FEF730FD054600BF306880031C
:101D40003FF54DAFFEF728FD401B6428F6D9032070
:101D500001B0F0BD7068216920F0FE4040EA0160EA
:101D600002E000BF41EA003070602078C00654D520
:101D7000306900F03801B06A082905D0182919D156
:101D800000F00300012815D13068C00503D5E069D3
:101D9000802840F09B80FEF7F7FC41F20301884267
:101DA0001ED8206A7168202821F0F84132D141F014
:101DB000804031E0E0690028306819D040F08000B0
:101DC0003060FEF7E9FC05463068C005E3D4FEF755
:101DD000E3FC401B02284FF00300F5D966E700BF83
:101DE000F068216A20F07C5040EA0160F06014E065
:101DF00020F080003060FEF7CFFC05463068C0055B
:101E00000BD5FEF7C9FC401B02284FF00300F5D9A3
:101E10004CE700BF41EA80607060207800073FD443
:101E20002078800656D42078400769D4656A9DB32F
:101E3000306900F03800182840F0AC80012DB16AFC
:101E4000306B43D001F00302A36A9A423ED1C1F342
:101E50000511E26A914239D10146226B6FF35F218D
:101E6000013A914232D1C0F34622616B01398A4274
:101E70002CD1C0F30642A16B01398A4226D1C0F3AE
:101E80000660E16B0139884220D1706BA16CC0F310
:101E9000CC00814240F03481002001B0F0BD00BF91
:101EA00060690028706F41D040F001007067FEF754
:101EB00073FC0546706F8007B2D4FEF76DFC401BC3
:101EC0000228F7D9032001B0F0BD00BF012001B006
:101ED000F0BD00BFA0690028306849D040F48050B0
:101EE0003060FEF759FC0546306880049BD4FEF74D
:101EF00053FC401B0228F7D9032001B0F0BD00BFFE
:101F0000D6F8000440F48070C6F80004FEF744FCE4
:101F1000054600BFD6F80004C00519D4FEF73CFC06
:101F2000401B6428F6D9032001B0F0BD20F0010069
:101F30007067FEF731FC0546706F80077FF570AF64
:101F4000FEF72AFC401B02284FF00300F4D9ADE64F
:101F5000A068002840D0052858D001285AD0306FFA
:101F600020F001003067306F20F0040055E000BF22
:101F700020F480503060FEF70FFC05463068800486
:101F80007FF551AFFEF708FC401B02284FF003001D
:101F9000F4D98BE6306820F080703060FEF7FCFBEF
:101FA000022D05460CD100BF3068800148D5FEF7F0
:101FB000F3FB401B02284FF00300F5D976E600BF83
:101FC000306880017FF568AFFEF7E6FB401B022812
:101FD0004FF00300F4D969E6306F20F0010030675C
:101FE000306F20F004003067FEF7D6FB054641F263
:101FF0008837306F80077FF519AFFEF7CDFB401BA8
:10200000B8424FF00300F4D950E600BF306F40F003
:1020100004003067306F40F001003067FEF7BCFB12
:10202000054641F2883700BF306F80073FF5FEAEAE
:10203000FEF7B2FB401BB8424FF00300F4D935E67F
:1020400004F12807B06A40F2F33188438ECF084389
:10205000591E40EA02104FF47E426FF35F21B062D6
:1020600002EB47204FF4FE0280B2E36B0844A16B01
:1020700002EB01414FF0FE4201F4FE0102EB03626C
:10208000084402F0FE4108443063F06A4FF6F871EC
:1020900020F00100F062706BA26C884340EAC2003D
:1020A0007063F06A216C20F00C000843F062F06A63
:1020B000616C20F002000843F062F06A40F4803066
:1020C000F062F06A40F40030F062F06A40F4802080
:1020D000F062F06A40F00100F062306840F0807019
:1020E0003060FEF759FB0446306880013FF5D4AEFE
:1020F000FEF752FB001B02284FF00300F4D9D5E590
:10210000F06A20F00100F062FEF746FB0546FEF79C
:1021100043FBA842FBD0706B4FF6F871A26C88436A
:1021200040EAC2007063F06A40F00100F0620020F3
:1021300001B0F0BD0000000000284DD02DE9F04FA7
:1021400081B043F6000104460068C4F2000143F286
:10215000000E43F6004C8842C4F2010EC4F2000C9B
:102160004FF00002A26203D0604518BF704541D114
:10217000E36B0125E268884202F1080205EB531384
:102180004FEAD20202FB03F318BF704526D1102B91
:1021900033D894F8810028B9002084F880002046C4
:1021A00000F0AAF8022084F88100D4E90009D4F8EC
:1021B00018800368B8F1806F23F00103036083681F
:1021C00003F4F81E26D1B9F1000F1BD0B9F5800F2A
:1021D00020D1A36B23BB19E001207047604518BFD5
:1021E000082B0AD80CF574418842D0D06045CED077
:1021F000CFE700BFE3680F2BBAD9012001B0BDE8DB
:10220000F08F00BFA36BB3F1805F06D1036843F486
:10221000805303605FEA492302D44FF0010C0FE0C2
:10222000E368072B0AD3056825F4807C256D45EA11
:102230000C0505604FF0000C07E000BF4FF0000CEC
:10224000036823F480730360E368E769A26A47EADE
:102250000E07E16B3A43A7681143B9F1000FD4E9C7
:1022600004BA41EA03018160616BA56B626A41EACD
:102270000201226A41EA050141EA0B0141EA0A0131
:10228000D4E9126341EA0201A26D41EA030141EA85
:10229000070141EA060141EA020141EA080141EA77
:1022A0000901C1600ED0016DBCF1000F21F00101E8
:1022B000016515D1C168626D21F000411143C16013
:1022C0000EE000BF8168012262F3CC218160816849
:1022D000022262F34A218160016D21F00101016552
:1022E0000020C4F88400012184F8811001B0BDE809
:1022F000F08F00000000000010B5B6B0694604463B
:1023000001F10800B821FEF71BF843F60001206830
:10231000C4F20001884201D036B010BD4FF48050A5
:102320000090684600240194FEF766FC08B1FEF7B1
:1023300053F844F2E040C5F60200816841F4804160
:102340008160816801F4804131913199016841F0E7
:1023500002010160006831A900F00200319031985B
:102360004FF4204031900220CDE932040520359011
:1023700040F200403494C5F60200FEF729F936B069
:1023800010BD0000000000002DE9F047044690F861
:102390008000012802D10220BDE8F0879A46154648
:1023A0000F46D4F80090012084F88000FEF7F4F97D
:1023B00094F8811001290BD127B1002D18BFBAF173
:1023C000000F0BD1002084F880000120BDE8F087C9
:1023D000002084F880000220BDE8F08780460520B8
:1023E00084F881000021C4F884104FF6FF736566FD
:1023F000A4F86AA0A4F868A0E765A4F862A0D4E9EC
:102400000002A4F860A0B2F5800F21676167C1687F
:1024100021F4C021C160416821EA030151444160B7
:10242000016841F00101016003D1016841F40071CC
:102430000160E068089D102838D3681C00F0BE8059
:1024400048F20807564606E0FEF7A6F9A0EB08009A
:10245000A84280F0A1805AEA060000F06D81206851
:10246000BAF1000F416918BF11F002010BD0E16D04
:1024700051F8042B0262E165B4F862100139A4F846
:102480006210B4F862A04169394218BF002EDBD057
:10249000006B616E41F8040B6166B4F86A000138A4
:1024A000A4F86A00B4F86A60CEE700BF072837D9FD
:1024B000681C00F0C180564606E000BFFEF76CF9CC
:1024C000A0EB0800A84267D25AEA060000F0348167
:1024D0002068BAF1000F416918BF11F002010CD059
:1024E000E16D31F8022BA9F82020E165B4F8621003
:1024F0000139A4F86210B4F862A04069C00718BF9F
:10250000002EDBD0B9F83000616E21F8020B616655
:10251000B4F86A000138A4F86A00B4F86A60CDE73C
:10252000681C00F0C980574606E000BFFEF734F98A
:10253000A0EB0800A8422FD25AEA070000F0FC8066
:102540002068BAF1000F416918BF11F002010ED0E6
:10255000E16D097880F82010E06D0130E0652068B9
:10256000B4F862100139A4F86210B4F862A04169AD
:10257000C90718BF002FD9D090F83000616E0870DD
:10258000606E01306066B4F86A000138A4F86A0031
:10259000B4F86A70CAE700BF204601F0C9FE002007
:1025A00084F88000D4F8840040F48070C4F884007B
:1025B000012084F881000320BDE8F087012048F263
:1025C0000807012256460FE0FEF7E6F846EA0A0140
:1025D00032465046002E18BF0122BAF1000F18BF34
:1025E0000120002900F0A8802168D2074A6918BF9D
:1025F00012F002020BD0E26D52F8043B0B62E2656E
:10260000B4F86220013AA4F86220B4F862604A6922
:102610003A4018BF012210400128D5D1086B616EE5
:1026200041F8040B6166B4F86A000138A4F86A0046
:10263000B4F86AA0C8E700BF0120012256460EE0A8
:10264000FEF7AAF846EA0A0132465046002E18BFA5
:102650000122BAF1000F18BF012000296CD02168B7
:10266000D2074A6918BF12F0020205D14969084031
:10267000C007E5D011E000BFE26D32F8023BA9F8D7
:102680002030E265B4F86220013AA4F86220B4F880
:10269000626049690840C007D2D0B9F83000616E65
:1026A00021F8020B6166B4F86A000138A4F86A00E8
:1026B000B4F86AA0C4E700BF0120012257460DE02C
:1026C000FEF76AF847EA0A013A465046002F18BF5B
:1026D0000122BAF1000F18BF012069B32168D207A7
:1026E0004A6918BF12F0020204D14A691040C007BB
:1026F000E6D012E0E26D127881F82020E16D013120
:10270000E1652168B4F86220013AA4F86220B4F8C7
:1027100062704A691040C007D2D091F83000616EF3
:102720000870606E01306066B4F86A000138A4F881
:102730006A00B4F86AA0C3E7681C13D02068406937
:10274000000713D4FEF728F8A0EB0800A842F5D341
:10275000D4F8840040F02000C4F8840006E000BFF4
:10276000FEF71AF8206840690007F9D5204601F005
:10277000DFFD002084F88000012084F88100D4F877
:102780008400002818BF0120BDE8F0870000000089
:10279000411E0020B0EB116F02D00120704700BF36
:1027A0004EF21002F023CEF2000251604EF6235199
:1027B000CEF200010B70072190601160704700009D
:1027C00090F88410012901D1022070472421C0F81B
:1027D000881002681368116823F0005321F001018A
:1027E00011600021416613602022C0F8882080F823
:1027F000841008467047000090F88420012A01D117
:102800000220704770B52422C0F888200268D0F8F2
:1028100064E0BEF1000FD2F800C0136823F001039A
:102820001360936823F0606341EA0301916019D05B
:10283000916846F68A0E9368C0F6000E5B0F46F666
:102840009205C1F34266C0F600051EF80340E95C3C
:102850002301B3FBF1F11EF80630AE5D1B01B3FBA3
:10286000F6F301E001210123A0F86A102021A0F86D
:102870006830C2F800C0C0F88810002180F88410C9
:10288000BDE870400846704790F88420012A01D1C5
:102890000220704770B52422C0F888200268D0F862
:1028A00064E0BEF1000FD2F800C0136823F001030A
:1028B0001360936823F0604341EA0301916019D0EB
:1028C000916846F68A0E9368C0F6000E5B0F46F6D6
:1028D0009205C1F34266C0F600051EF80340E95CAC
:1028E0002301B3FBF1F11EF80630AE5D1B01B3FB13
:1028F000F6F301E001210123A0F86A102021A0F8DD
:102900006830C2F800C0C0F88810002180F8841038
:10291000BDE870400846704710B5A8B10446D0F82D
:10292000880028B9002084F88400204600F028F8A8
:102930002420C4F888002068016821F001010160AA
:10294000204601F099FF08B1012010BDA06A10B126
:10295000204601F065FE2068416821F49041416005
:10296000816821F02A018160016841F00101016064
:102970002046BDE8104001F0C3BE0000000000008A
:1029800010B5B6B06946044601F10800B821FDF75C
:10299000D7FC41F200012068C4F20101884201D055
:1029A00036B010BD01200090684600240194FEF767
:1029B00023F908B1FDF710FD44F2E040C5F602002E
:1029C000016941F010010161016901F010013191CB
:1029D0003199016841F001010160006831A900F0FE
:1029E0000100319031984FF4C06031900220CDE960
:1029F00032040720359000203494C5F60200FDF71C
:102A0000E7FD36B010BD0000FEE70000000000004A
:102A1000F0B581B040F218060546C2F2004640F219
:102A20000044002000217288B388C5F6020400F03B
:102A30001FFF7088B18801FB00F70020002100F023
:102A4000AFFEB67A4FF4805100222046FDF794FE87
:102A5000022100222046FDF78FFE304601F050FC97
:102A60004FF4805101222046FDF786FEDFB12E0A89
:102A7000EDB200BF4FF4805100222046FDF77CFEEE
:102A8000022101222046FDF777FE304601F038FC96
:102A9000284601F035FC4FF4805101222046FDF715
:102AA0006BFE013FE6D101B0F0BD00000000000068
:102AB0002DE9F04381B040F2180940F20044C2F21F
:102AC0000049C5F6020490460E4699F80C50074698
:102AD0004FF4805100222046FDF74EFE02210022D5
:102AE0002046FDF749FE284601F00AFC4FF48051CC
:102AF00001222046FDF740FE4FF48051002220467F
:102B0000FDF73AFE022101222046FDF735FE380A84
:102B100001F0F6FBF8B201F0F3FB4FF48051012213
:102B20002046FDF729FE99F80E504FF480510022FF
:102B30002046FDF721FE022100222046FDF71CFE63
:102B4000284601F0DDFB4FF4805101222046FDF7BD
:102B500013FE4FF4805100222046FDF70DFE0221A6
:102B600001222046FDF708FE300A01F0C9FBF0B251
:102B700001F0C6FB4FF4805101222046FDF7FCFD19
:102B800099F80A504FF4805100222046FDF7F4FDD9
:102B9000022100222046FDF7EFFD284601F0B0FBA0
:102BA0004FF4805101222046FDF7E6FD4FF480519D
:102BB00000222046FDF7E0FD022101222046FDF71C
:102BC000DBFD4FEA182001F09BFB5FFA88F001F073
:102BD00097FB4FF480510122204601B0BDE8F0433D
:102BE000FDF7CABD000000002DE9F047121A5B1A7C
:102BF00002F101095E1C1FFA89F240F20044B3B2EF
:102C0000DDF820A0C5F6020400F032FE40F21808FC
:102C10004FF48051C2F2004800222046002798F865
:102C20000A50FDF7A9FD022100222046FDF7A4FD70
:102C3000284601F065FB4FF4805101222046FDF744
:102C40009BFD98F80A504FF480510022204606FB65
:102C500009F9FDF791FD022100222046FDF78CFDC8
:102C6000284601F04DFB4FF4805101222046FDF72C
:102C700083FD5FFA8AF64FEA1A2500BF4FF48051B0
:102C800000222046FDF778FD022101222046FDF7B3
:102C900073FD284601F034FB304601F031FB4FF460
:102CA000805101222046FDF767FD01374F45E5D9E8
:102CB000B8F80220B8F8043000200021BDE8F04741
:102CC00000F0D6BD0000000010B586B044F2E04030
:102CD00040F20044C5F60200C5F60204016841F066
:102CE00002010160006801A900F002000190019852
:102CF00041F2030001900120CDE90200032004907D
:102D00002046FDF765FC012101222046FDF734FD38
:102D1000022101222046FDF72FFD4FF480510122B0
:102D20002046FDF729FD4FF4804100222046FDF7A3
:102D300023FD3220FDF738FC4FF48041012220466C
:102D4000FDF71AFD1E20FDF72FFC01210122204670
:102D5000FDF712FD06B010BDF0B581B0FFF7B4FF6E
:102D600040F200444FF48051C5F602040022204690
:102D70000025FDF701FD022100222046FDF7FCFCA5
:102D8000012001F0BDFA4FF4805101222046FDF7E9
:102D9000F3FC3220FDF708FC3220FDF705FC4FF470
:102DA000805100222046FDF7E7FC02210022204648
:102DB000FDF7E2FC362001F0A3FA4FF48051012226
:102DC0002046FDF7D9FC4FF4805100222046FDF744
:102DD000D3FC022101222046FDF7CEFC002001F0A9
:102DE0008FFA4FF4805101222046FDF7C5FC4FF4C5
:102DF000805100222046FDF7BFFC02210022204620
:102E0000FDF7BAFC3A2001F07BFA4FF48051012221
:102E10002046FDF7B1FC4FF4805100222046FDF71B
:102E2000ABFC022101222046FDF7A6FC052001F0A3
:102E300067FA4FF4805101222046FDF79DFC4FF4C4
:102E4000805100222046FDF797FC022100222046F7
:102E5000FDF792FCB22001F053FA4FF480510122A9
:102E60002046FDF789FC4FF4805100222046FDF7F3
:102E700083FC022101222046FDF77EFC0C2001F09C
:102E80003FFA4FF4805101222046FDF775FC4FF4C4
:102E9000805100222046FDF76FFC022101222046CE
:102EA000FDF76AFC0C2001F02BFA4FF4805101224F
:102EB0002046FDF761FC4FF4805100222046FDF7CB
:102EC0005BFC022101222046FDF756FC002001F0A8
:102ED00017FA4FF4805101222046FDF74DFC4FF4C4
:102EE000805100222046FDF747FC022101222046A6
:102EF000FDF742FC332001F003FA4FF48051012228
:102F00002046FDF739FC4FF4805100222046FDF7A2
:102F100033FC022101222046FDF72EFC332001F074
:102F2000EFF94FF4805101222046FDF725FC4FF4C4
:102F3000805100222046FDF71FFC0221002220467E
:102F4000FDF71AFCB72001F0DBF94FF480510122A4
:102F50002046FDF711FC4FF4805100222046FDF77A
:102F60000BFC022101222046FDF706FC352001F072
:102F7000C7F94FF4805101222046FDF7FDFB4FF4C5
:102F8000805100222046FDF7F7FB02210022204657
:102F9000FDF7F2FBBB2001F0B3F94FF480510122A1
:102FA0002046FDF7E9FB4FF4805100222046FDF753
:102FB000E3FB022101222046FDF7DEFB192001F090
:102FC0009FF94FF4805101222046FDF7D5FB4FF4C5
:102FD000805100222046FDF7CFFB0221002220462F
:102FE000FDF7CAFBC02001F08BF94FF4805101229C
:102FF0002046FDF7C1FB4FF4805100222046FDF72B
:10300000BBFB022101222046FDF7B6FB2C202C261B
:1030100001F076F94FF4805101222046FDF7ACFB18
:103020004FF4805100222046FDF7A6FB022100222A
:103030002046FDF7A1FBC22001F062F94FF4805158
:1030400001222046FDF798FB4FF4805100222046D4
:10305000FDF792FB022101222046FDF78DFB0120A6
:1030600001F04EF94FF4805101222046FDF784FB18
:103070004FF4805100222046FDF77EFB0221002202
:103080002046FDF779FBC32001F03AF94FF4805157
:1030900001222046FDF770FB4FF4805100222046AC
:1030A000FDF76AFB022101222046FDF765FB122095
:1030B00001F026F94FF4805101222046FDF75CFB18
:1030C0004FF4805100222046FDF756FB02210022DA
:1030D0002046FDF751FBC42001F012F94FF4805156
:1030E00001222046FDF748FB4FF480510022204684
:1030F000FDF742FB022101222046FDF73DFB202087
:1031000001F0FEF84FF4805101222046FDF734FB18
:103110004FF4805100222046FDF72EFB02210022B1
:103120002046FDF729FBC62001F0EAF84FF4805154
:1031300001222046FDF720FB4FF48051002220465B
:10314000FDF71AFB022101222046FDF715FB0F2097
:1031500001F0D6F84FF4805101222046FDF70CFB18
:103160004FF4805100222046FDF706FB0221002289
:103170002046FDF701FBD02001F0C2F84FF480514A
:1031800001222046FDF7F8FA4FF480510022204634
:10319000FDF7F2FA022101222046FDF7EDFAA42004
:1031A00001F0AEF84FF4805101222046FDF7E4FA19
:1031B0004FF4805100222046FDF7DEFA0221012261
:1031C0002046FDF7D9FAA12001F09AF84FF480517A
:1031D00001222046FDF7D0FA4FF48051002220460C
:1031E000FDF7CAFA022100222046FDF7C5FAE020C9
:1031F00001F086F84FF4805101222046FDF7BCFA19
:103200004FF4805100222046FDF7B6FA0221012238
:103210002046FDF7B1FAD02001F072F84FF480514A
:1032200001222046FDF7A8FA4FF4805100222046E3
:10323000FDF7A2FA022101222046FDF79DFA0420A3
:1032400001F05EF84FF4805101222046FDF794FA18
:103250004FF4805100222046FDF78EFA0221012210
:103260002046FDF789FA0D2001F04AF84FF480510D
:1032700001222046FDF780FA4FF4805100222046BB
:10328000FDF77AFA022101222046FDF775FA112096
:1032900001F036F84FF4805101222046FDF76CFA18
:1032A0004FF4805100222046FDF766FA02210122E8
:1032B0002046FDF761FA132001F022F84FF4805107
:1032C00001222046FDF758FA4FF480510022204693
:1032D000FDF752FA022101222046FDF74DFA2B207C
:1032E0002B2701F00DF84FF4805101222046FDF705
:1032F00043FA4FF4805100222046FDF73DFA0221A7
:1033000001222046FDF738FA3F2000F0F9FF4FF484
:10331000805101222046FDF72FFA4FF48051002200
:103320002046FDF729FA022101222046FDF724FA62
:10333000542000F0E5FF4FF4805101222046FDF7B4
:103340001BFA4FF4805100222046FDF715FA0221A6
:1033500001222046FDF710FA4C2000F0D1FF4FF477
:10336000805101222046FDF707FA4FF480510022D8
:103370002046FDF701FA022101222046FDF7FCF963
:10338000182000F0BDFF4FF4805101222046FDF7C8
:10339000F3F94FF4805100222046FDF7EDF90221A8
:1033A00001222046FDF7E8F90D2000F0A9FF4FF4B7
:1033B000805101222046FDF7DFF94FF480510022B1
:1033C0002046FDF7D9F9022101222046FDF7D4F964
:1033D0000B2000F095FF4FF4805101222046FDF7AD
:1033E000CBF94FF4805100222046FDF7C5F90221A8
:1033F00001222046FDF7C0F91F2000F081FF4FF4A5
:10340000805101222046FDF7B7F94FF48051002288
:103410002046FDF7B1F9022101222046FDF7ACF963
:10342000232000F06DFF4FF4805101222046FDF76C
:10343000A3F94FF4805100222046FDF79DF90221A7
:1034400000222046FDF798F9E12000F059FF4FF4E3
:10345000805101222046FDF78FF94FF48051002260
:103460002046FDF789F9022101222046FDF784F963
:10347000D02000F045FF4FF4805101222046FDF797
:103480007BF94FF4805100222046FDF775F90221A7
:1034900001222046FDF770F9042000F031FF4FF4BF
:1034A000805101222046FDF767F94FF48051002238
:1034B0002046FDF761F9022101222046FDF75CF963
:1034C0000C2000F01DFF4FF4805101222046FDF733
:1034D00053F94FF4805100222046FDF74DF90221A7
:1034E00001222046FDF748F9112000F009FF4FF4B2
:1034F000805101222046FDF73FF94FF48051002210
:103500002046FDF739F9022101222046FDF734F962
:10351000132000F0F5FE4FF4805101222046FDF704
:103520002BF94FF4805100222046FDF725F90221A6
:1035300001222046FDF720F92C2000F0E1FE4FF497
:10354000805101222046FDF717F94FF480510022E7
:103550002046FDF711F9022101222046FDF70CF962
:103560003F2000F0CDFE4FF4805101222046FDF7B0
:1035700003F94FF4805100222046FDF7FDF80221A7
:1035800001222046FDF7F8F8442000F0B9FE4FF480
:10359000805101222046FDF7EFF84FF480510022C0
:1035A0002046FDF7E9F8022101222046FDF7E4F864
:1035B000512000F0A5FE4FF4805101222046FDF776
:1035C000DBF84FF4805100222046FDF7D5F80221A8
:1035D00001222046FDF7D0F82F2000F091FE4FF495
:1035E000805101222046FDF7C7F84FF48051002298
:1035F0002046FDF7C1F8022101222046FDF7BCF864
:103600001F2000F07DFE4FF4805101222046FDF77F
:10361000B3F84FF4805100222046FDF7ADF80221A7
:1036200001222046FDF7A8F81F2000F069FE4FF4A4
:10363000805101222046FDF79FF84FF4805100226F
:103640002046FDF799F8022101222046FDF794F863
:10365000202000F055FE4FF4805101222046FDF756
:103660008BF84FF4805100222046FDF785F80221A7
:1036700001222046FDF780F8232000F041FE4FF4A0
:10368000805101222046FDF777F84FF48051002247
:103690002046FDF771F8022100222046FDF76CF864
:1036A000212000F02DFE4FF4805101222046FDF72D
:1036B00063F84FF4805100222046FDF75DF80221A7
:1036C00000222046FDF758F8112000F019FE4FF4B3
:1036D000805101222046FDF74FF87820FCF764FF67
:1036E0004FF4805100222046FDF746F802210022C7
:1036F0002046FDF741F8292000F002FE4FF48051EA
:1037000001222046FDF738F8C820FCF74DFF40F2B3
:103710001800F021C2F20040F0224FF4A0730572AD
:1037200041804FF4A07181802A214681818100214E
:10373000C781002000F09CF84FF480510022204601
:10374000FDF71AF8022100222046FDF715F8362071
:1037500000F0D6FD4FF4805101222046FDF70CF811
:103760004FF4805100222046FDF706F80221012285
:103770002046FDF701F8002000F0C2FD4FF4805113
:1037800001222046FCF7F8FF012101222046FCF728
:10379000F3FF4FF6FF7001B0BDE8F040FFF738B916
:1037A0002DE9F04140F2180840F20044C2F200480E
:1037B000C5F602040D46064698F80C704FF4805189
:1037C00000222046FCF7D8FF022100222046FCF709
:1037D000D3FF384600F094FD4FF48051012220467B
:1037E000FCF7CAFF4FF4805100222046FCF7C4FFCB
:1037F000022101222046FCF7BFFF300A00F080FDC5
:10380000F0B200F07DFD4FF4805101222046FCF71C
:10381000B3FF98F80E604FF4805100222046FCF769
:10382000ABFF022100222046FCF7A6FF304600F045
:1038300067FD4FF4805101222046FCF79DFF4FF4B5
:10384000805100222046FCF797FF022101222046EA
:10385000FCF792FF280A00F053FDE8B200F050FD9B
:103860004FF4805101222046BDE8F041FCF784BFAF
:103870002DE9F04F81B00646104440F2180A451E6B
:10388000C818C2F2004A40F20044A0F10108C5F68F
:1038900002048B461FFA88F09AF80C7000904FF4DF
:1038A0008051002220461FFA85F9FCF765FF0221AE
:1038B00000222046FCF760FF384600F021FD4FF45F
:1038C000805101222046FCF757FF4FF4805100221F
:1038D0002046FCF751FF022101222046FCF74CFF55
:1038E000300A00F00DFDF0B200F00AFD4FF48051F7
:1038F00001222046FCF740FF4FF480510022204671
:10390000FCF73AFF022101222046FCF735FF4FEA7F
:10391000192000F0F5FCE8B200F0F2FC4FF4805101
:1039200001222046FCF728FF9AF80E604FF48051E0
:1039300000222046FCF720FF022100222046FCF74F
:103940001BFF304600F0DCFC4FF480510122204682
:10395000FCF712FF4FF4805100222046FCF70CFFC9
:10396000022101222046FCF707FF4FEA1B2000F04E
:10397000C7FC5FFA8BF000F0C3FC4FF480510122CA
:103980002046FCF7F9FE4FF4805100222046FCF758
:10399000F3FE022101222046FCF7EEFE0098000A09
:1039A00000F0AEFC5FFA88F000F0AAFC4FF4805102
:1039B0000122204601B0BDE8F04FFCF7DDBE00005B
:1039C0002DE9F04F85B0DD0801275E0718BF07EB32
:1039D000D3055F087D432F0600F03A82182B00F2D2
:1039E000378288460646012041F200019840C0F225
:1039F0000111084200F02C82A2F120000F99C0B200
:103A0000002945F62E3445F2CA0240F2180C45F260
:103A10003E515FFA85FA00EBC005C0F60004C0F61F
:103A20000002C2F2004CC0F6000100EB4007CDE9F5
:103A3000033800F0F98002EB870B0027C14601EB49
:103A400000100290102B09D00C2B584608D045F6D8
:103A50002E30C0F6000000EB850000E002983844EC
:103A600090F90040B4F1FF3F0CDCB0B20E9A1FFA9F
:103A700089F1FFF71DF840F2180C039BC2F2004CCD
:103A8000DDF8108009F10101BCF8040089B281421F
:103A900080F0DE81A1EB08029A4200F0B380E4B22C
:103AA00062060CD5B0B20E9AFFF702F840F2180C7D
:103AB000039BC2F2004CDDF81080BCF8040009F151
:103AC000020189B2814280F0C381A1EB08029A42CF
:103AD00000F09880A2060CD5B0B20E9AFEF7E8FF6F
:103AE00040F2180C039BC2F2004CDDF81080BCF8C9
:103AF000040009F1030189B2814280F0A981A1EBA0
:103B000008029A427ED0E2060CD5B0B20E9AFEF7B9
:103B1000CFFF40F2180C039BC2F2004CDDF810807E
:103B2000BCF8040009F1040189B2814280F090815F
:103B3000A1EB08029A4265D022070CD5B0B20E9ACA
:103B4000FEF7B6FF40F2180C039BC2F2004CDDF802
:103B50001080BCF8040009F1050189B2814280F0AF
:103B60007781A1EB08029A424CD062070CD5B0B223
:103B70000E9AFEF79DFF40F2180C039BC2F2004C18
:103B8000DDF81080BCF8040009F1060189B2814219
:103B900080F05E81A1EB08029A4233D0A2070CD5D7
:103BA000B0B20E9AFEF784FF40F2180C039BC2F2EB
:103BB000004CDDF81080BCF8040009F1070189B25F
:103BC000814280F04581A1EB08029A421AD0E207B7
:103BD0000CD0B0B20E9AFEF76BFF40F2180C039BAC
:103BE000C2F2004CDDF81080BCF8040009F10809AD
:103BF0001FFA89F1814280F02B81A1EB08009842E5
:103C000008D100BF0136BCF80200B1B2C146814202
:103C100080F01E81BAF1010A07F101070BF1010BD7
:103C20007FF410AF14E100BF04EB850B0025029573
:103C300002EB8702019201EB001000900C2B05D0E3
:103C4000102B584605D10298009901E0DDE90110DA
:103C5000084490F9004040F21000C2F200400E9972
:103C60001FFA86F9002C008848BF08461FFA88F121
:103C700082B24846FEF71CFF40F2180508F1010029
:103C800081B2C2F20045DDE90337AA88914280F093
:103C9000DF80C81B984200F0CB80E4B240F21000F5
:103CA000C2F2004062060E9A008848BF104682B2F7
:103CB0004846FEF7FDFE40F2180508F1020081B209
:103CC000C2F20045039B049FAA88914280F0C08005
:103CD000C81B984200F0AC8040F21000A206C2F26D
:103CE00000400E9A008848BF104682B24846FEF750
:103CF000DFFE40F2180508F1030081B2C2F2004570
:103D0000039B049FAA88914280F0A280C81B98421E
:103D100000F08E8040F21000E206C2F200400E9ADF
:103D2000008848BF104682B24846FEF7C1FE40F206
:103D3000180508F1040081B2C2F20045039B049FFC
:103D4000AA88914280F08480C81B984270D040F2CB
:103D500010002207C2F200400E9A008848BF1046A9
:103D600082B24846FEF7A4FE40F2180508F10500AD
:103D700081B2C2F20045039B049FAA88914267D298
:103D8000C81B984254D040F210006207C2F20040B3
:103D90000E9A008848BF104682B24846FEF788FE59
:103DA00040F2180508F1060081B2C2F20045039BFB
:103DB000049FAA8891424BD2C81B984238D040F247
:103DC0001000A207C2F200400E9A008848BF1046B9
:103DD00082B24846FEF76CFE40F2180508F1070073
:103DE00081B2C2F20045039B049FAA8891422FD260
:103DF000C81B98421CD040F21000E207C2F20040FB
:103E00000E9A008818BF104682B24846FEF750FE50
:103E100040F2180508F108081FFA88F0C2F20045C0
:103E2000039B049FA988884212D2C01B984205D1E7
:103E300001366888B1B2B846814209D2BAF1010AA6
:103E400002980BF1010B00F1010002907FF4F6AE35
:103E500005B0BDE8F08F00002DE9F04F83B00E9E55
:103E60003778A7F12005EDB25E2D2CD80C4681469F
:103E7000104419440C9D01361FFA80FACB461FFAF4
:103E800081F86A08029200BF1FFA8BF0504528BFE4
:103E90002C44A1B2414516D2FAB2504528BF5FFA70
:103EA00089FB0D9B00271FFA8BF0CDE900372B46CD
:103EB000FFF786FD16F8017BA7F12000C0B25F284E
:103EC00002988344E0D303B0BDE8F08F0000000007
:103ED00080B540F228000021C2F20040C4F6020181
:103EE000082201600021C0E90111C0E90311C0E905
:103EF0000511C0E90821C0E90A110163FCF774FA51
:103F0000002808BF80BDBDE88040FCF765BA00000E
:103F100070B586B044F2E0400025C5F60200059574
:103F200040F2004400220168C5F6020441F010018D
:103F30000160016841F6034601F01001009100990B
:103F4000016841F001010160016801F00101009187
:103F50000099016841F002010160016801F002016D
:103F600000910099016841F004010160016801F0CD
:103F7000040100910099016841F0080101600068A6
:103F800041F6034100F00800009000982046FCF73D
:103F9000F3FB012001A9CDE9020520460196049515
:103FA000FCF716FB06B070BD80B540F2780043F612
:103FB0000001C2F20040C4F200014FF080620160D3
:103FC0004FF4800141604FF4003181600721C160EE
:103FD0004FF0007101610021416182614FF0005298
:103FE000C0E90721C0E90911C1624FF00042C0E9F0
:103FF0000D11C0E90F11C0E91111C0E91311C0E999
:104000001521FEF799F8002808BF80BDBDE8804063
:10401000FCF7E2B90000000080B540F2001041F268
:104020000001C2F20040C4F201010C2201604FF411
:10403000E13141600021C0E902110161C0E90521BF
:10404000C0E90711C0E90911FEF766FC08B1FCF7E9
:10405000C3F940F200100021C2F20040FEF714FC48
:1040600008B1FCF7B9F940F200100021C2F200409B
:10407000FEF7C2FB08B1FCF7AFF940F20010C2F244
:104080000040FEF79DFB002808BF80BDBDE88040D2
:10409000FCF7A2B900000000FEE7000000000000ED
:1040A000FEE7000000000000704700000000000074
:1040B000F0B581B044F22C47C5F6020757F8042C3E
:1040C00002F00302032A03D1012001B0F0BD00BFBA
:1040D000054657F82C0C0C4620F0806047F82C0C55
:1040E000FCF75AFB064600BF57F82C0C000105D51B
:1040F000FCF752FB801B0228F6D964E057F8040C49
:10410000EE6895E80E0020F47C30012C40EA013086
:10411000A2F101016FF35F214FF47E4202EB4322D3
:1041200047F8040C92B24FF0FE4302EB01004FF44B
:10413000FE012A6901EB064101F4FE0103EB026274
:10414000084402F0FE410844F8603868696920F0CC
:10415000C00040EA010038603868A96920F02000FA
:1041600040EA0100386038684FF6F87120F010001E
:1041700038603869EA6920EA01004FF4001140EA2A
:10418000C2003861386808BF4FF4801140F0100059
:10419000002C386008BF4FF40021386808433860AD
:1041A00057F82C0C40F0806047F82C0CFCF7F4FA20
:1041B000044600BF57F82C0C000107D4FCF7ECFABA
:1041C000001B0328F6D3032001B0F0BD002001B08E
:1041D000F0BD000000000000F0B581B044F22C47B3
:1041E000C5F6020757F8042C02F00302032A03D194
:1041F000012001B0F0BD00BF054657F82C0C0C465D
:1042000020F0805047F82C0CFCF7C6FA064600BF99
:1042100057F82C0C800005D5FCF7BEFA801B02284D
:10422000F6D964E057F8040CEE6895E80E0020F02B
:104230007C70012C40EA0150A2F101016FF35F2173
:104240004FF47E4202EB432247F8040C92B24FF047
:10425000FE4302EB01004FF4FE012A6901EB064127
:1042600001F4FE0103EB0262084402F0FE4108443F
:1042700078613868696920F4406040EA010038607C
:104280003868A96920F4007040EA01003860386895
:104290004FF6F87120F480703860B869EA6920EA56
:1042A00001004FF0807140EAC200B861386808BF71
:1042B0004FF4000140F48070002C386008BF4FF4C8
:1042C000800138680843386057F82C0C40F0805063
:1042D00047F82C0CFCF760FA044600BF57F82C0C8A
:1042E000800007D4FCF758FA001B0328F6D30320FC
:1042F00001B0F0BD002001B0F0BD000000000000E2
:1043000080B582B08DF8070040F27800C2F200401C
:104310000DF107010DF1060201234FF0640CCDF8F9
:1043200000C0FEF731F89DF8060002B080BD000025
:10433000016840F26F32D1F814C08B6943F0080372
:104340008B618B6943F010038B610B6823F00103D1
:104350000B600B6923EA02020A618A6822F4404278
:104360008A6090F88120042A18BF1CF0200209D02E
:10437000D0F8842042F08002C0F884208A6942F09C
:1043800020028A6190F88120032A18BF1CF04002A5
:104390000CD15FEA8C5216D45FEACC5220D40021B3
:1043A000A0F86210A0F86A10704700BFD0F884200F
:1043B00042F00402C0F884208A6942F040028A6117
:1043C0005FEA8C52E8D5D0F8842042F00102C0F8B0
:1043D00084208A6942F400728A615FEACC52DED599
:1043E000D0F8842042F00802C0F884208A6942F4A0
:1043F00080728A610021A0F86210A0F86A107047EC
:104400007047000000000000FCF7CEB9000000007B
:1044100070B59CB044F6180440F22C4509A84C2114
:10442000C5F60204C5F60005FBF78AFF0220002648
:10443000CDE90766CDE90566CDE90366CDE90166FC
:10444000FCF76EFA0096286820F0010028602868C2
:1044500000F001000090206840F440402060206897
:1044600000F44040009000982068800409D420683F
:1044700080045CBF20685FEA804002D4206880042A
:10448000F2D54FF6DC40CFF6FF70215841F0020123
:104490002150205800F00200009000980020009069
:1044A000206840F440402060206800F440400090C4
:1044B000286840F001002860286800F001000090A2
:1044C00000982068800409D4206880045CBF2068BC
:1044D0005FEA804002D420688004F2D5022009906F
:1044E00001210C9112900025042114913C214024BB
:1044F000CDE9151005210D94CDE917100C20139569
:10450000CDE9190509A81B95FDF75EFB20B1EFF376
:10451000108072B6FEE700BF3F2001900320042107
:10452000CDE9020508200694CDE904044FF480602B
:10453000CDE9070401A8FDF7FFF828B1EFF31080DB
:1045400072B600BFFEE700BF1CB070BD00000000E7
:104550004EF6885042F2000CCEF20000C5F2002C5C
:10456000016841F470010160DCF8000000F00F0008
:10457000062806D8DCF80000072161F30300CCF818
:10458000000044F200404EF67F52C5F60200CEF61F
:10459000F622016841F00101016000210161036818
:1045A0001A400260DCF80020120706D5DCF8002073
:1045B000072363F30302CCF8002040F2002281615C
:1045C000C161C0F20222016282620022C0F2FF12C7
:1045D000C26240F28022C0F2011202634163826330
:1045E000C16302644164026822F4802202600166B1
:1045F00041F20000C5F600400068B1EB507F05D1E4
:1046000048F208100121C5F20010016044F20000D8
:1046100043F2D201C5F200200160704700000000A3
:10462000816ACA070CD18A0715D44A071ED40A0723
:1046300027D4CA0630D48A0639D44A0642D454E074
:104640000268D0F82CC0536823F4003343EA0C030B
:1046500053608A07E9D50268D0F830C0536823F464
:10466000803343EA0C0353604A07E0D50268D0F870
:1046700034C0536823F4802343EA0C0353600A07D1
:10468000D7D50268D0F838C0536823F4004343EA12
:104690000C035360CA06CED50268D0F83CC09368BC
:1046A00023F4805343EA0C0393608A06C5D502685D
:1046B000D0F840C0936823F4005343EA0C0393609E
:1046C0004A0612D50268D0F844C0BCF5801F536872
:1046D00023F4801343EA0C03536006D1536823F498
:1046E000C00C836C43EA0C035360090658BF704743
:1046F0000168C06C4A6822F4002210434860704789
:10470000B0B582B004460020C4F89000FCF744F82D
:10471000216805460A68120737D54FF400110022B8
:104720006FF07E40009020462B4600F0EDFA58B323
:10473000206850E8000F216820F0800041E8000266
:10474000F2B1206850E8000F216820F0800041E8B5
:104750000002002A1FBF206850E8000F216820F0E7
:1047600080001CBF41E80002002A09D0206850E800
:10477000000F216820F0800041E80002002AD7D114
:104780002020C4F8880062E021680868400765D5E9
:104790004FF4800100226FF07E40009020462B46AF
:1047A00000F0B2FA002859D0206850E8000F2168C4
:1047B00020F4907041E80002F2B1206850E8000F48
:1047C000216820F4907041E80002002A1FBF206891
:1047D00050E8000F216820F490701CBF41E80002EF
:1047E000002A09D0206850E8000F216820F490705A
:1047F00041E80002002AD7D1206850E8020F216862
:1048000020F0010041E80202F2B1206850E8020FF6
:10481000216820F0010041E80202002A1FBF206841
:1048200050E8020F216820F001001CBF41E802029D
:10483000002A09D0206850E8020F216820F001000A
:1048400041E80202002AD7D12020C4F88C000320BE
:10485000002184F8841002B0B0BD00BF2020C4F84D
:104860008800C4F88C000020E0662067002184F8EE
:10487000841002B0B0BD0000F0B583B004460068FB
:1048800046F6F31640F6004E22696569D4E9021334
:104890000A43E7690168CCF6FF762A4331401143A9
:1048A000C5F6000E394301604168704521F440515E
:1048B00044F2544C41EA03014160A2694FF2FF43C4
:1048C0001CBF216A0A438168C1F2FF131940C5F673
:1048D000020C1143816047F2FF72C16AC4F2000208
:1048E00021F00F01656A90424FF0800341EA050113
:1048F000C1621FDD40F6FF71C4F2010188422DDD67
:10490000704500F0258141F20041C4F20101884266
:1049100005D041F20001C4F20101884244D1DCF823
:104920000010C1F3C202062A3ED245F29601C0F63B
:10493000000137E044F6FF31C4F2000188421BDC7D
:1049400044F20041C4F20001884221D044F6000143
:10495000C4F2000188421BD026E000BF47F60001E8
:10496000C4F20001884213D047F60041C4F20001AE
:1049700088420DD018E000BF44F60041C4F20001A7
:10498000884205D045F20001C4F2000188420BD1F3
:10499000DCF8001001F00702062A05D245F29C015E
:1049A000C0F600018B181B78704540F60010C0F26D
:1049B0003D0000F05380B7F5004F40F07B80402B66
:1049C0004FF0010100F29181DFE813F0420016017F
:1049D0008F018F011A018F018F018F0120018F013B
:1049E0008F018F018F018F018F018F0128018F01AE
:1049F0008F018F018F018F018F018F018F018F0137
:104A00008F018F018F018F018F018F0138018F017D
:104A10008F018F018F018F018F018F018F018F0116
:104A20008F018F018F018F018F018F018F018F0106
:104A30008F018F018F018F018F018F018F018F01F6
:104A40008F018F018F018F018F018F01360100BF10
:104A5000FCF7CEFF002840F0DF8042E19A1E0121E2
:104A60001E2A00F27F80DFE812F01F004001830061
:104A700040014001400189004001400140014001E6
:104A800040014001400193004001400140014001CC
:104A9000400140014001400140014001400140010E
:104AA000400140014001A000FBF762FF002840F0F8
:104AB0006C8016E1402B4FF0010100F21681DFE817
:104AC00013F04100D90014011401DD001401140198
:104AD0001401E30014011401140114011401140160
:104AE0001401EB0014011401140114011401140148
:104AF000140114011401140114011401140114010E
:104B00001401FB0014011401140114011401140117
:104B100014011401140114011401140114011401ED
:104B200014011401140114011401140114011401DD
:104B300014011401140114011401140114011401CD
:104B40001401F900FCF754FF002840F0A280C8E0EF
:104B5000DCF8041001F00702062ABFF425AF67A1B4
:104B600020E700BF402B40F0C0804FF400401CE025
:104B70006846FBF711FF019838B9B2E06846FBF7C9
:104B8000A3FF0198002800F0AC80656A0DE000BF2B
:104B90005CF8540C800649F20000C0F2D03004D515
:104BA0005CF8541CC1F3C101C84045F2B20162680F
:104BB000C0F6000131F81510B0FBF1F002EB420134
:104BC00088424FF00101C0F090801303984200F238
:104BD0008C80010E0023000210EB520041F1000115
:104BE000FBF776FB4FF60052A0F54071C0F20F02C2
:104BF000914274D378E000BFFCF72AFF60B970E0FF
:104C00006846FBF7C9FE019830B96AE06846FBF7D1
:104C10005BFF0198002864D0656A0FE05CF8540CD3
:104C2000800649F20000C0F2D03007D55CF8541C71
:104C3000C1F3C101C84001E04FF4004045F2B201A8
:104C4000C0F6000131F81510B0FBF1F061684A08B8
:104C500002EB40004FF6EF72B0FBF1F0A0F1100153
:104C6000914241D84FF6F0710140C0F34200084430
:104C700035E000BFFCF7ECFE58B932E06846FBF7C0
:104C80008BFE019828B92CE06846FBF71DFF0198C0
:104C900038B3656A10E000BF5CF8540C800649F236
:104CA0000000C0F2D03007D55CF8541CC1F3C1013C
:104CB000C84001E04FF4004045F2B2016268C0F61E
:104CC000000131F81510B0FBF1F000EB5200B0FB21
:104CD000F2F0A0F110014FF6EF72914204D8216872
:104CE000C860002101E000BF01214FF00110A06663
:104CF0000020C4E91D00084603B0F0BD02040810FE
:104D000020400000000000002DE9F041044600684A
:104D10000D46C7693940491BB1FA81F149099142F1
:104D200029D1DDF81880B8F1000F27D0164618F108
:104D3000010129D1C1692940491BB1FA81F1490911
:104D4000B14218D1C1692940491BB1FA81F1490921
:104D5000B14201BFC1692940491BB1FA81F104BFC9
:104D60004909B14207D1C1692940491BB1FA81F112
:104D70004909B142DED00020BDE8F081FBF70CFD0F
:104D80000320BDE8F08100BF1F4607E0C06928404E
:104D9000401BB0FA80F04009B042ECD1FBF7FCFCBC
:104DA000C01B404500F29680206801684907EDD598
:104DB000C169090700F19280C1690905E6D54FF480
:104DC00000610162206850E8000F216820F49070B3
:104DD00041E80002F2B1206850E8000F216820F499
:104DE000907041E80002002A1FBF206850E8000FC1
:104DF000216820F490701CBF41E80002002A09D00D
:104E0000206850E8000F216820F4907041E800020B
:104E1000002AD7D14FF6FE70CEF6FF70216851E818
:104E2000021F2268014042E80213DBB1216851E809
:104E3000021F2268014042E80213002B1FBF2168B5
:104E400051E8021F226801401CBF42E80213002BF8
:104E500008D0216851E8021F2268014042E802138D
:104E6000002BDBD1E06E012827D1206850E8000F2D
:104E7000216820F0100041E80002F2B1206850E8FB
:104E8000000F216820F0100041E80002002A1FBF37
:104E9000206850E8000F216820F010001CBF41E896
:104EA0000002002A09D0206850E8000F216820F095
:104EB000100041E80002002AD7D12020C4F88C005D
:104EC0000021E1666167C4F89000032084F8841033
:104ED000BDE8F0810320BDE8F08100BF0821016238
:104EE000206850E8000F216820F4907041E800022B
:104EF000F2B1206850E8000F216820F4907041E87A
:104F00000002002A1FBF206850E8000F216820F42B
:104F100090701CBF41E80002002A09D0206850E8C8
:104F2000000F216820F4907041E80002002AD7D1D8
:104F30004FF6FE70CEF6FF70216851E8021F22681E
:104F4000014042E80213DBB1216851E8021F2268E8
:104F5000014042E80213002B1FBF216851E8021FE5
:104F6000226801401CBF42E80213002B08D02168D0
:104F700051E8021F2268014042E80213002BDBD1F6
:104F8000E06E012827D1206850E8000F216820F04A
:104F9000100041E80002F2B1206850E8000F2168DB
:104FA00020F0100041E80002002A1FBF206850E8EE
:104FB000000F216820F010001CBF41E80002002A09
:104FC00009D0206850E8000F216820F0100041E867
:104FD0000002002AD7D12020C4F88C000020E0660F
:104FE00060670821C4F8901084F884000120BDE8AF
:104FF000F081000000000000FEE70000000000005B
:1050000084B0FBF7E1FBFFF703FAFEF781FFFEF741
:105010005FFFFEF7C9FFFEF7FFFFFDF79DFE4FF4B0
:105020007840FDF7F5FC0A200A211E221E2348F2D3
:105030001F4CCDF800C0FDF7D7FD322032214722AA
:1050400018234FF0010C0024CDE9004CFEF7B8FC0A
:1050500010206421CDE900046420C822052303A4A4
:105060000294FEF7F9FE00BFFEE700BF7A646820F5
:10507000697320736869740002E008C8121F08C1D0
:10508000002AFAD170477047002001E001C1121FC9
:10509000002AFBD1704701040810204000040810CA
:1050A000204000000000010203040102030406077F
:1050B0000809010002000400060008000A000C00B4
:1050C00010002000400080000001000000000000EF
:1050D000000000000000000000003F400000000051
:1050E00000000000300040003000400000000900D7
:1050F0000BC03D000BC03D00090018C024407FE0FC
:10510000224031800000180024C01B000D80324076
:10511000018003801C4027401C8007400040100095
:10512000600000000000000000000000000000001F
:105130001F80204040200000402020401F800000B1
:105140000000090006001F8006000900000004009E
:1051500004003F8004000400000000100060000014
:10516000000000000000040004000400040004002B
:1051700000000000004000000000000000000020CF
:1051800001C006003800400000001F802040204081
:1051900020401F800000000010403FC00040000081
:1051A000000018C021402240244018400000108018
:1051B0002040244024401B80000002000D0011000C
:1051C0003FC0014000003C80244024402440238014
:1051D00000001F8024402440344003800000300041
:1051E000200027C03800200000001B8024402440FD
:1051F00024401B8000001C0022C0224022401F804F
:105200000000000000000840000000000000000056
:1052100000000460000000000000000004000A001C
:105220001100208040400900090009000900090020
:10523000000000004040208011000A000400180017
:10524000200023402400180000001F802040274039
:1052500029401F400000004007C039000F0001C076
:10526000004020403FC0244024401B8000001F809D
:105270002040204020403080000020403FC020409F
:1052800020401F80000020403FC024402E4030C0FE
:10529000000020403FC024402E00300000000F00DE
:1052A0001080204022403380020020403FC0040094
:1052B00004003FC02040204020403FC0204020400C
:1052C00000000060202020203FC02000200020405F
:1052D0003FC024400B0030C0204020403FC0204051
:1052E0000040004000C03FC03C0003C03C003FC045
:1052F000000020403FC00C4023003FC020001F8022
:105300002040204020401F80000020403FC024401B
:105310002400180000001F802140214020E01FA031
:10532000000020403FC02440260019C0004018C0A3
:1053300024402440224031800000300020403FC003
:1053400020403000000020003F80004000403F80AF
:10535000200020003E0001C0070038002000380077
:1053600007C03C0007C038000000204039C00600DC
:1053700039C0204000002000384007C038402000DD
:105380000000304021C02640384020C0000000000E
:1053900000007FE0402040200000000070000C0072
:1053A0000380004000000000402040207FE000001B
:1053B000000000002000400020000000000000105D
:1053C000001000100010001000100000000040004D
:1053D000000000000000000002800540054003C0FE
:1053E000004020003FC00440044003800000000053
:1053F0000380044004400640000000000380044095
:1054000024403FC0004000000380054005400340A9
:105410000000000004401FC0244024402000000081
:1054200002E0055005500650042020403FC00440D3
:10543000040003C000400000044027C000400000FA
:10544000000000100010041027E0000000002040C1
:105450003FC00140070004C00440204020403FC03E
:1054600000400040000007C0040007C0040003C063
:105470000000044007C00440040003C000400000D6
:1054800003800440044003800000041007F004502F
:10549000044003800000000003800440045007F033
:1054A0000010044007C00240040004000000000097
:1054B00006400540054004C00000000004001F80B5
:1054C000044000400000040007800040044007C082
:1054D00000400400070004C001800600040006002C
:1054E00001C0070001C006000000044006C0010022
:1054F00006C0044000000410071004E0018006000C
:1055000004000000044005C0064004400000000004
:10551000000004007BE040200000000000000000CC
:10552000FFF000000000000040207BE004000000CD
:1055300000004000800040002000200040000000EB
:10554000000000000000000000000000000000005B
:10555000000000001FCC000C000000000000000054
:1055600008003000600008003000600000000220E9
:1055700003FC1E20022003FC1E200220000000006D
:105580000E1811043FFF10840C78000000000F007B
:1055900010840F3800C00778188400780000007865
:1055A0000F8410C411240E9800E400840008080041
:1055B0006800700000000000000000000000000013
:1055C0000000000007E0181820044002000000005E
:1055D00040022004181807E000000000000002400C
:1055E000024001800FF00180024002400000008074
:1055F000008000800FF80080008000800000000123
:10560000000D000E0000000000000000000000007F
:10561000008000800080008000800080008000000A
:10562000000C000C00000000000000000000000062
:10563000000600180060018006001800200000002D
:1056400007F0080810041004080807F00000000024
:10565000080408041FFC000400040000000000000F
:105660000E0C10141024104411840E0C00000000C5
:105670000C1810041104110412880C7000000000B2
:1056800000E00320042408241FFC00240000000084
:105690001F9810841104110410881070000000007D
:1056A00007F0088811041104188800700000000039
:1056B0001C00100010FC13001C0010000000000073
:1056C0000E3811441084108411440E38000000007C
:1056D0000700088C10441044088807F00000000000
:1056E00000000000030C030C00000000000000009C
:1056F00000000001010600000000000000000000A2
:10570000008001400220041008081004000002205C
:1057100002200220022002200220022000000000BD
:10572000100408080410022001400080000000005E
:105730000E001200100C106C10800F00000003E02F
:105740000C1813E4142417C4082807D00000000420
:10575000003C03C41C40074000E4001C000410048B
:105760001FFC1104110411040E880070000003E0F6
:105770000C1810041004100410081C100000100471
:105780001FFC100410041004080807F000001004A7
:105790001FFC1104110417C41004081800001004A1
:1057A0001FFC1104110017C010000800000003E0E6
:1057B0000C181004100410441C7800400000100461
:1057C0001FFC10840080008010841FFC1004000067
:1057D000100410041FFC100410040000000000035B
:1057E0000001100110011FFE100010000000100445
:1057F0001FFC110403801464181C10040000100422
:105800001FFC1004000400040004000C000010043D
:105810001FFC1F0000FC1F001FFC100400001004F0
:105820001FFC0C04030000E010181FFC100007F020
:105830000808100410041004080807F00000100401
:105840001FFC10841080108010800F00000007F0F3
:10585000081810241024101C080A07F20000100475
:105860001FFC1104110011C011300E0C00040000C7
:105870000E1C11041084108410441C380000180001
:10588000100010041FFC100410001800000010008D
:105890001FF810040004000410041FF8100010008A
:1058A0001E0011E0001C007013801C0010001FC0BF
:1058B000103C00E01F0000E0103C1FC0000010047E
:1058C000180C163401C001C01634180C1004100056
:1058D0001C00130400FC13041C001000000008044A
:1058E000101C1064108413041C0410180000000025
:1058F000000000007FFE4002400240020000000065
:1059000030000C0003800060001C00030000000059
:105910004002400240027FFE000000000000000044
:105920000000200040004000400020000000000176
:105930000001000100010001000100010001000060
:1059400040004000200000000000000000000000B7
:105950000098012401440144014400FC00041000AB
:105960001FFC008801040104008800700000000092
:105970000070008801040104010400880000000098
:10598000007000880104010411081FFC00040000DD
:1059900000F8014401440144014400C80000000033
:1059A000010401040FFC110411041100180000008F
:1059B00000D601290129012901C9010600001004AE
:1059C0001FFC008401000100010400FC0004000031
:1059D0000104190419FC0004000400000000000088
:1059E000000300010101190119FE0000000010046C
:1059F0001FFC0024004001B4010C01040000000061
:105A0000100410041FFC0004000400000000010446
:105A100001FC0104010001FC0104010000FC01047F
:105A200001FC008401000100010400FC00040000EE
:105A300000F8010401040104010400F80000010160
:105A400001FF0085010401040088007000000000CF
:105A50000070008801040104010501FF0001010438
:105A6000010401FC00840104010001800000000029
:105A700000CC01240124012401240198000000002D
:105A80000100010007F8010401040000000001000A
:105A900001F8000400040004010801FC00040100F6
:105AA00001800170000C001001600180010001F014
:105AB000010C003001C00030010C01F001000000B9
:105AC0000104018C00740170018C010400000101CB
:105AD00001810171000E00180160018001000000C9
